:100000000C9434000C9451000C9451000C94510049
:100010000C9451000C9451000C9451000C9451001C
:100020000C9451000C9451000C9451000C946906EE
:100030000C9451000C9451000C9451000C945100FC
:100040000C9451000C9451000C9451000C945100EC
:100050000C9451000C9451000C9451000C945100DC
:100060000C9451000C94510011241FBECFEFD8E026
:10007000DEBFCDBF13E0A0E0B1E0EEE1F4E102C0ED
:1000800005900D92A831B107D9F723E0A8E1B3E0BC
:1000900001C01D92A332B207E1F70E940A080C9436
:1000A000050A0C9400001092C50093E39093C400DD
:1000B000E0ECF0E090819D7F908390819F7E908323
:1000C000982F947098619093C100880F8670642B6C
:1000D000862B8093C2000895E1ECF0E0808180627D
:1000E00080830895E1ECF0E080818F7D8083089526
:1000F000E1ECF0E08081806880830895E1ECF0E03D
:1001000080818F77808308959091C000957081E001
:10011000953009F080E00895CF93C82F8A3029F4F4
:1001200070E060E08DE00E948C008091C00085FF4F
:10013000FCCFC093C600CF910895E0ECF0E0908131
:100140008081991F9927991F8C71892B089580911F
:10015000C00087FFFCCF8091C60008958093C60041
:1001600008958091C6000895FC0184EE97E096837F
:10017000858381E0848383838CE080831182128273
:1001800084E087830895CF93DF93CDB7DEB72C97B4
:100190000FB6F894DEBF0FBECDBF29833A834B83E1
:1001A000252F7E838F834E815F81822F90E070E0C8
:1001B000262F2150330BF901272F30E02E173F0750
:1001C0000CF45DC0633030F09A0123703327232B89
:1001D00009F401966DE671E0469F9001479F300D4E
:1001E000569F300D1124215933424D5C574056958E
:1001F000479556954795240F351F280F391FA8E1BD
:10020000B0E00E94830869877A878B879C87898101
:1002100029853A854B855C85280F311D411D511D6F
:10022000ACE3B0E00E94920869877A878B879C874D
:100230008A8129853A854B855C85280F311D411DB2
:10024000511D0E94920869877A878B879C878B81D2
:1002500029853A854B855C85280F311D411D511D2F
:1002600020583C4B4249574CCA01B9012C960FB655
:10027000F894DEBF0FBECDBFDF91CF9108952E5809
:100280003E4FD9012C91820F911D7F5F95CF982F02
:10029000929597708F702AE0929F800D1124089597
:1002A000982F8F70292F30E097FF08C095FB2227E9
:1002B00020F99CE0299F800D1124089594E0359544
:1002C00027959A95E1F723709AE0F4CF982F9295AD
:1002D0009F708F702AE0929F800D112408956AE02C
:1002E0000E9449088295807F890F0895E9EBF0E02C
:1002F00080818E7F808380818D7F80838CE080935E
:10030000B80085E08093BC00089524EE2093BC00E3
:100310002091BC0027FFFCCF20ED2093BB0024ECF4
:100320002093BC002091BC0027FFFCCF1092BB00A3
:1003300024EC2093BC002091BC0027FFFCCF24EECE
:100340002093BC002091BC0027FFFCCF21ED20931F
:10035000BB0024EC2093BC002091BC0027FFFCCF05
:10036000FC01079634EC3093BC002091BC0027FFC1
:10037000FCCF2091BB002193E817F907A1F784E88F
:100380008093BC008091BC0087FFFCCF84E9809300
:10039000BC0008950F931F93CF93DF93CDB7DEB7C3
:1003A00060970FB6F894DEBF0FBECDBF8C01CE01B3
:1003B00009960E94B400C8010E948501F80180815D
:1003C0000E9447018B87F80181810E9447018A873B
:1003D000F80182810E9450018987F8018381888B0E
:1003E00084810E9447018C87F80185810E94470122
:1003F0008D87F80186810E94660190E08053984FB6
:100400009F878E8788E0FE013996DE011196019064
:100410000D928A95E1F729813A814B815C816D814A
:100420007E818F81988560960FB6F894DEBF0FBEEF
:10043000CDBFDF91CF911F910F9108951F93CF935F
:10044000DF93CDB7DEB728970FB6F894DEBF0FBEA7
:10045000CDBF162F0E94CA01822F5AE0652F0E943D
:100460004908805D80930B01905D90930C012AE315
:1004700020930D01832F0E944908805D80930E0117
:10048000905D90930F0120931001113071F4109240
:1004900010018BE091E028960FB6F894DEBF0FBEF6
:1004A000CDBFDF91CF911F910895842F0E944908FD
:1004B000805D80931101905D909312011092130161
:1004C000E8CFEF92FF920F931F93CF93DF93CDB7B7
:1004D000DEB728970FB6F894DEBF0FBECDBF062F4C
:1004E000F42E122F0E94CA01252F362F7E838F8370
:1004F000EE81FF8182E0F81691F183E0F81609F4AD
:1005000065C081E0F81253C04AE0852F642F0E9435
:100510004908805D80930001905D909301011093E4
:100520000201832F0E944908805D80930301905D42
:100530009093040110930501CF01013009F055C0DB
:10054000805D97406AE070E00E945508605D6093AE
:100550000601805D809307011092080128C00130D8
:1005600009F068C0CF01805D97406AE070E00E94AA
:100570005508605D60930001805D809301011093D8
:100580000201F0E0E0E0E050FF4F4AE0832F642FEB
:100590000E944908805D8383905D94831583822F38
:1005A0000E944908805D8683905D9783108680E075
:1005B00091E028960FB6F894DEBF0FBECDBFDF9155
:1005C000CF911F910F91FF90EF9008954AE0862FF1
:1005D000642F0E944908805D80930001905D909394
:1005E000010110930201852F9DCF68EE73E00E94F8
:1005F0005508605D6093060124E630E0B9010E9471
:100600005508605D60930701CF01B9010E9455084C
:100610002AE030E0B9010E945508605D609308014E
:10062000CF01B9010E945508805D809309011092A5
:100630000A01BDCFCF0168EE73E00E945508605DEE
:100640006093000144E6E42EF12CB7010E945508A6
:10065000605D60930101CF01B7010E9455085AE027
:10066000E52EF12CB7010E945508605D60930201F0
:10067000CF01B7010E945508805D8093030110935C
:100680000401E2E0F0E07FCF1F93CF93DF93CDB77B
:10069000DEB7A4970FB6F894DEBF0FBECDBF9C01A6
:1006A000162F9EE0E6E2F1E0DE011F9601900D922A
:1006B0009A95E1F79EE0E4E3F1E0DE011196019006
:1006C0000D929A95E1F7C9010E94CA012D8F3E8FC4
:1006D0004F8F58A369A37AA38BA39CA3892F90E083
:1006E0001130B1F4FC013197EE0FFF1F21E030E033
:1006F0002C0F3D1FE20FF31F80819181A4960FB64E
:10070000F894DEBF0FBECDBFDF91CF911F9108954A
:100710000197880F991FE1E0F0E0EC0FFD1F8E0FAD
:100720009F1FFC0186859785E9CF1F93CF93DF93A9
:10073000CDB7DEB7E8970FB6F894DEBF0FBECDBFDA
:100740009C01162F98E1E2E4F1E0DE015996019058
:100750000D929A95E1F798E1EAE5F1E0DE01119654
:1007600001900D929A95E1F7C9010E94CA0129AB47
:100770003AAB4BAB5CAB6DAB7EAB8FAB98AF862F20
:1007800090E01130B1F4FC013197EE0FFF1F21E032
:1007900030E02C0F3D1FE20FF31F80819181E8961E
:1007A0000FB6F894DEBF0FBECDBFDF91CF911F9182
:1007B00008950197880F991FE1E0F0E0EC0FFD1F0D
:1007C0008E0F9F1FFC01808D918DE9CF94EE909349
:1007D000BC009091BC0097FFFCCF90ED9093BB00C4
:1007E00094EC9093BC009091BC0097FFFCCF809359
:1007F000BB0084EC8093BC008091BC0087FFFCCFE1
:1008000084EE8093BC008091BC0087FFFCCF81ED1B
:100810008093BB0084EC8093BC008091BC0087FF78
:10082000FCCF84EC8093BC008091BC0087FFFCCFA0
:100830008091BB0094E89093BC009091BC0097FF1E
:10084000FCCF94E99093BC000895FF920F931F93FF
:10085000CF93DF9300D000D000D0CDB7DEB781E1D9
:100860000E94E6038D8382E10E94E60382958695CD
:1008700086958370282F30E050E040E029833A834A
:100880004B835C83CA01B9010E940C0920E030E06F
:1008900040E85EE369837A838B839C8369817A81F4
:1008A0008B819C810E949809F62E072F182F9E831A
:1008B0009D81892F90E0B0E0A0E089839A83AB838B
:1008C000BC83BC01CD010E940A099B01AC01F982E5
:1008D0000A831B83AE81AC8369817A818B819C8181
:1008E0000E949E0869837A838B839C8369817A81C5
:1008F0008B819C8126960FB6F894DEBF0FBECDBFCC
:10090000DF91CF911F910F91FF90089594EE9093F6
:10091000BC009091BC0097FFFCCF90ED9093BB0082
:1009200094EC9093BC009091BC0097FFFCCF809317
:10093000BB0084EC8093BC008091BC0087FFFCCF9F
:100940006093BB0084EC8093BC008091BC0087FF67
:10095000FCCF84E98093BC000895CF93DF93862F6A
:10096000D42FC22F6831D0F44C33C0F42C33B0F400
:100970000E946F01682F82E00E9486048D2F0E94E2
:100980006F01682F81E00E9486048C2F0E946F0106
:10099000682F80E0DF91CF910C948604DF91CF9196
:1009A0000895CF93DF93C62FD42FC9012FEF260FC1
:1009B0002F31F8F42FEF240F2C30D8F4805D9740BE
:1009C00084369105B0F40E946F01682F86E00E9482
:1009D00086048D2F0E946F01682F85E00E94860497
:1009E0008C2F0E946F01682F84E0DF91CF910C94CF
:1009F0008604DF91CF910895FF920F931F93CF93B9
:100A0000DF93CDB7DEB728970FB6F894DEBF0FBEE1
:100A1000CDBF0E94CA01252F462F7E838F838EE093
:100A200090E0861B9109ECE0F0E0BF010E946908AC
:100A3000F62E0E811F81061B110930E0285A344E14
:100A4000200F311FC8019695879596958795280F99
:100A5000391FC80160E971E00E945508260F371F51
:100A6000C80164E670E00E945508261B370B42500F
:100A70005CE0F59E400D11245FE1459FC00111240B
:100A8000BF010E946908C901860F971F67E070E0E7
:100A90000E94550861E0680F83E028960FB6F8942D
:100AA000DEBF0FBECDBFDF91CF911F910F91FF90A1
:100AB0000C9486048FEF860F873018F483E00C9433
:100AC00086040895CF93DF93C82F8FE00E94E6033A
:100AD00098E0C99FE0011124682F677F6C2B8FE09D
:100AE000DF91CF910C948604CF93DF93C82F8EE0D3
:100AF0000E94E60394E0C99FE0011124682F6B7FF8
:100B00006C2B8EE0DF91CF910C948604CF93C82F8D
:100B10008EE00E94E603682F677ECC0FCC0FCC0FCF
:100B20006C2B8EE0CF910C9486040F931F93CF9380
:100B3000DF93EC018C01060F171FC017D10729F4B2
:100B4000DF91CF911F910F91089570E060E089913E
:100B50000E948C00F2CFCF93DF93EC018991811139
:100B600003C0DF91CF91089570E060E00E948C0097
:100B7000F5CFCF93DF9300D00F92CDB7DEB72091A2
:100B800088023091890240918A0229833A834B83FB
:100B9000843668F080E389838A83CE0101960E94BF
:100BA000AB050F900F900F90DF91CF9108956AE001
:100BB0000E944908805D8983905D9A83EECF8830DA
:100BC000F8F4E82FF0E0E95FF54F0C947D088BE82E
:100BD00092E00C94AB0589E992E0FBCF87EA92E0C2
:100BE000F8CF85EB92E0F5CF83EC92E0F2CF81ED88
:100BF00092E0EFCF8FED92E0ECCF8DEE92E0E9CF77
:100C00000895CF92DF92EF92FF920F931F93CF93AD
:100C1000DF93382FEB01C053D84FFB01E370FF2760
:100C2000CE0164E670E00E9455087C01CE0160E9C7
:100C300071E00E945508EC01CF010296BF016F5F81
:100C40007F4F0E94550801E010E06801C81AD90AD8
:100C5000C7010296B7016F5F7F4F0E945508C89E7B
:100C6000F001C99EF00DD89EF00D1124CE01029620
:100C7000BE016F5F7F4F0E945508E81BF90BC32F21
:100C8000D0E0232F269526952695230F217082E00C
:100C900090E0BE010E946908280F245EC801BE01D1
:100CA0000E946908260FCF010296BE010E945508D6
:100CB000260FCF010196BE010E945508822F861B88
:100CC000DF91CF911F910F91FF90EF90DF90CF9028
:100CD00008951F920F920FB60F9211242F933F93F6
:100CE0004F935F936F937F938F939F93AF93BF9334
:100CF000EF93FF9333990DC080912203811121C09E
:100D000081E08093220364E070E08EE191E00E9434
:100D10009505809122038823C9F1813009F45AC0D6
:100D2000FF91EF91BF91AF919F918F917F916F91C3
:100D30005F914F913F912F910F900FBE0F901F9099
:100D40001895809121038630F1F420912003409181
:100D50001F036091170188E193E00E94AD04209188
:100D6000140130E02053384F409115016091160175
:100D700088E193E00E94D10488E193E00E94FC04A2
:100D800087E08093210310922203BDCF8BEF92E086
:100D90000E94AB0562E088E193E00E941E020E947F
:100DA000AB0582E093E00E94AB052EE242E062E0F8
:100DB00088E193E00E9461020E94AB0580E192E02D
:100DC0000E94AB0562E088E193E00E9444030E9428
:100DD000AB05A6CF329907C080912103863018F564
:100DE0008F5F8093210380912103833009F497C0A2
:100DF00088F5823009F47BC08823B9F0309908C0A7
:100E000080911F038B3308F06DC08F5F80931F03A9
:100E1000319926C080911F03882309F466C0815050
:100E200080931F031DC010922103309908C0809148
:100E30001701873108F051C08F5F809317013199F6
:100E40000FC080911701882309F44AC08150809314
:100E5000170106C0843009F495C0853009F4B6C086
:100E600089E093E00E94AB05809121030E94DF0599
:100E700082E093E00E94AB05809117010E94B905C2
:100E800080E193E00E94AB0580911F030E94B905A9
:100E900080E193E00E94AB05809120030E94B90598
:100EA00080E192E00E94AB0582E193E00E94AB05F5
:100EB000809114010E94B90585E193E00E94AB0581
:100EC000809115010E94B90585E193E00E94AB0570
:100ED000809116010E94B90523CF10921701AFCF60
:100EE00087E1B5CF10921F0393CF8BE399CF309951
:100EF00007C0809120038B3368F48F5F80932003B9
:100F00003199AECF80912003882339F081508093AE
:100F10002003A6CF10922003F3CF8BE3F8CF3099B4
:100F200014C080911401833640F58F5F80931401C3
:100F30006091140170E0809115010E94010690916A
:100F40001601891710F480931601319989CF809189
:100F500014018823A9F08150809314016091140139
:100F600070E0809115010E94010690911601891789
:100F700008F076CF8093160173CF10921401D8CF6A
:100F800083E6EACF309914C0809115018C30D0F4FB
:100F90008F5F809315016091140170E080911501BD
:100FA0000E94010690911601891710F48093160192
:100FB000319956CF80911501823030F08150809365
:100FC0001501CCCF81E0E5CF8CE0F9CF30990EC090
:100FD0006091140170E0809115010E9401069091CA
:100FE0001601981758F49F5F90931601319938CFE6
:100FF00080911601823030F08150BCCF81E0809327
:101000001601F4CF6091140170E0809115010E94E7
:101010000106B0CF87B1807F87B90E94760140E09A
:1010200060E383E00E9453002FEF81EE94E02150B3
:1010300080409040E1F700C0000064E070E082E290
:1010400091E00E9495052FEF89E99DE821508040AD
:101050009040E1F700C00000F894109285001092D3
:101060008400109280001092810083E294EF9093AC
:101070008900809388008CE08093810082E08093D7
:101080006F00789466E070E088E191E00E94950539
:10109000FFCF991B79E004C0991F961708F0961BA3
:1010A000881F7A95C9F780950895AA1BBB1B51E14B
:1010B00007C0AA1FBB1FA617B70710F0A61BB70BC8
:1010C000881F991F5A95A9F780959095BC01CD016D
:1010D000089597FB072E16F4009407D077FD09D0EA
:1010E0000E94550807FC05D03EF4909581959F4FCE
:1010F0000895709561957F4F0895EE0FFF1F05903D
:10110000F491E02D0994A29FB001B39FC001A39F69
:10111000700D811D1124911DB29F700D811D112430
:10112000911D08950E948308A59F900DB49F900D76
:10113000A49F800D911D112408955058BB27AA2704
:101140000E94B5080C945E090E94500938F00E9474
:10115000570920F039F49F3F19F426F40C944D09F7
:101160000EF4E095E7FB0C944709E92F0E946F0904
:1011700058F3BA17620773078407950720F079F4CC
:10118000A6F50C9491090EF4E0950B2EBA2FA02D24
:101190000B01B90190010C01CA01A0011124FF2724
:1011A000591B99F0593F50F4503E68F11A16F0401F
:1011B000A22F232F342F4427585FF3CF469537951E
:1011C0002795A795F0405395C9F77EF41F16BA0BE3
:1011D000620B730B840BBAF09150A1F0FF0FBB1F91
:1011E000661F771F881FC2F70EC0BA0F621F731FDA
:1011F000841F48F4879577956795B795F7959E3F37
:1012000008F0B0CF9395880F08F09927EE0F9795C7
:1012100087950895E89409C097FB3EF490958095D2
:10122000709561957F4F8F4F9F4F9923A9F0F92FAC
:1012300096E9BB279395F695879577956795B7952A
:10124000F111F8CFFAF4BB0F11F460FF1BC06F5F10
:101250007F4F8F4F9F4F16C0882311F096E911C022
:10126000772321F09EE8872F762F05C0662371F043
:1012700096E8862F70E060E02AF09A95660F771F57
:10128000881FDAF7880F9695879597F9089597F94B
:101290009F6780E870E060E008959FEF80EC08951C
:1012A00000240A9416161706180609060895002445
:1012B0000A9412161306140605060895092E0394BF
:1012C000000C11F4882352F0BB0F40F4BF2B11F433
:1012D00060FF04C06F5F7F4F8F4F9F4F089557FD92
:1012E0009058440F551F59F05F3F71F04795880F94
:1012F00097FB991F61F09F3F79F08795089512162B
:1013000013061406551FF2CF4695F1DF08C01616D6
:1013100017061806991FF1CF869571056105089487
:101320000895E894BB2766277727CB0197F908959E
:101330000E94AB090C945E090E94500938F00E948B
:10134000570920F0952311F00C9447090C944D098E
:1013500011240C9492090E946F0970F3959FC1F3B8
:10136000950F50E0551F629FF001729FBB27F00D53
:10137000B11D639FAA27F00DB11DAA1F649F6627A8
:10138000B00DA11D661F829F2227B00DA11D621FF7
:10139000739FB00DA11D621F839FA00D611D221FB1
:1013A000749F3327A00D611D231F849F600D211D95
:1013B000822F762F6A2F11249F5750409AF0F1F018
:1013C00088234AF0EE0FFF1FBB1F661F771F881F81
:1013D00091505040A9F79E3F510580F00C94470969
:1013E0000C9492095F3FE4F3983ED4F38695779589
:1013F0006795B795F795E7959F5FC1F7FE2B880F27
:10140000911D9695879597F90895F894FFCFE70574
:0E141000EB05EE05F105F405F705FA05FD05FF
:10141E0078787878787878787878007878787878B6
:10142E00787878001401010C1B5C3F4C53331B5B26
:10143E00324A1B5C3F527E01880192019C01A6013B
:10144E00B001BA01C401C801CC01D001D401D80148
:10145E00DC01E001EA01F401FE01080212021C02A5
:10146E00260230023A0244024E0258025C02600228
:10147E00640268026C027002740278027C028002BE
:10148E0084021F1C1F1E1F1E1F1F1E1F1E1F537593
:10149E006E646179202020004D6F6E64617920208A
:1014AE002000547565736461792020005765646E61
:1014BE006573646179005468757273646179200094
:1014CE0046726964617920202000536174757264DC
:1014DE006179200053756E004D6F6E005475650076
:1014EE005765640054687500467269005361740054
:1014FE004A616E756172792020004665627275616F
:10150E00727920004D6172636820202020004170A6
:10151E0072696C20202020004D617920202020202F
:10152E0020004A756E652020202020004A756C79B7
:10153E002020202020004175677573742020200024
:10154E0053657074656D626572004F63746F62658A
:10155E00722020004E6F76656D62657220004465C4
:10156E0063656D62657220004A616E0046656200B9
:10157E004D617200417072004D6179004A756E00C6
:10158E004A756C0041756700536570004F637400B7
:10159E004E6F76004465630078780053455420689A
:1015AE006F7572732020202000534554206D696E94
:1015BE0075746573202000534554207365636F6EF8
:1015CE0064732020005345542079656172202020D9
:1015DE00202000534554206D6F6E7468202020200B
:1015EE000053455420646174652020202020004360
:1015FE006F6E6669726D205345542020005345541A
:10160E0020737461747573204F4B001B5B313B3636
:10161E0048001B5B323B3148001B5B313B314800BD
:08162E003A003230002E0000EA
:00000001FF
